:020000041000EA
:10000000002008205D0100101301001015010010F0
:100010001101001011010010110100101101001058
:100020001101001011010010110100101701001042
:100030001101001011010010190100101B01001026
:100040001D0100101D0100101D0100101D010010F8
:100050001D0100101D0100101D0100101D010010E8
:100060001D0100101D0100101D0100101D010010D8
:100070001D0100101D0100101D0100101D010010C8
:100080001D0100101D0100101D0100101D010010B8
:100090001D0100101D0100101D0100101D010010A8
:1000A0001D0100101D0100101D0100101D01001098
:1000B0001D0100101D0100101D0100101D01001088
:1000C0001D0100101D0100101D0100101D01001078
:1000D0001D0100101D0100101D0100101D01001068
:1000E0001D0100101D0100101D0100101D01001058
:1000F0001D0100101D0100101D0100101D01001048
:100100001D0100101D0100101D0100101D01001037
:1001100000BE00BE00BE00BE00BE00BEEFF3058004
:10012000103800BEF2EB8871188300103C83001079
:10013000A801001090A31AE7D3DEFFFF42012110AF
:10014000FF010000BC9C0000793512AB4FF00000AD
:100150002049086006C881F3088810474FF05040D6
:10016000006810B14FF00000F2E70FA40ECC002998
:1001700002D000F015F8F9E71749184A002000E00E
:1001800001C19142FCD1002080F30A8814498847BC
:10019000144988471449884700BEFDE701C901C2D8
:1001A0009A42FBD3704700BF3C830010100100202F
:1001B000C81B0020F49D001000000820000008204B
:1001C000F49D00100010082000100820000000001E
:1001D0007047000008ED00E0C81B0020D82904206B
:1001E000F14B0010D1020010E94B0010F8B500BF30
:1001F000064B0749C91A891048BF0131491003D07D
:10020000044B0BB101481847704700BFC81B0020C2
:10021000C81B00200000000008B5054B1BB10549B4
:100220000548AFF30080BDE80840FFF7E1BF00BF1D
:10023000000000003C290420307D001008B54FF478
:10024000004003F0A5F90246044B4FF400401A6049
:1002500003F09EF9024B186008BD00BF542904202A
:100260001425042008B501F0E5FB054B186001F0EA
:10027000E5FB044B186001F0E5FB034B186008BD7B
:100280009823042094230420842304200A480B4943
:100290000B4A0C4B006809681278986019612AB102
:1002A000094B4FF40042196807F0ECBA074B4FF4C2
:1002B0000042196807F0E6BA5429042030290420C6
:1002C000D229042098290420942304209823042070
:1002D00030B585B001F09CFB0B2002F073FE1C488A
:1002E00003AB02AA01A902F059FD18B9184919482F
:1002F00001F052FCDDE90212174C019802F08CFC6F
:10030000164807F0D5FC204607F0D2FCFFF796FF11
:10031000FFF7A8FF124B13481B6813491B88134DA6
:10032000DAB20380C3F307232A700B702272FFF73F
:10033000ADFF0A4807F0B8FC204607F0B5FC0C48B2
:1003400004F07EFF01F028FA002005B030BD00BFA8
:10035000400D0300307D00108823042098290420DC
:100360008423042064290420D4290420D2290420D1
:10037000BD060010004870476C80001000487047B0
:100380009C7F001038B5184B04461A780AB344B95C
:1003900040F209424FF44173144D6A8013482B8098
:1003A00038BD062C1AD8124B104D53F8241028468D
:1003B0000023013903E01A2B20F8022F10D011F886
:1003C000012F0133DBB2002AF5D15B0043F4407307
:1003D000E4E71121184606F059FED8E7002038BDA1
:1003E00040F23633DAE700BFB0290420CC240420E1
:1003F000807F00102DE9F04F1F464FF440239146B7
:100400008DB09DF85850069307EB050B4FEA4B1340
:1004100007F01F0242EA055203F47873134323F0F6
:10042000E05343F0406A4FEAC91E09F109034FF453
:1004300080324EEA033E4FF4F8330024CDE9042322
:1004400007940DF1200C04AE00F12F448046029178
:1004500096E80F008CE80F00CDF824E09CE80F0030
:1004600086E80F004FF4802304F56004240D063461
:10047000BD42CDE9063AE4B288BFBA4607D9504634
:1004800021460AF1010A01F025FB5545F7D821461E
:10049000584601F01FFB21460BF1010001F01AFB49
:1004A00021460BF1020001F015FB01233A460093AF
:1004B0004046EB1C029904F05BFD9DED177ADFEDE1
:1004C000147A77EE277ABCEEE77A17EE103A9BB2F1
:1004D00063B91C4644EA03444A46334640460299FF
:1004E000049404F08BFD0DB0BDE8F08F07EE103AD8
:1004F000B8EE477ADFED076A77EEC77A67EEA67A3D
:10050000FCEEE77ACDED037A9DF80C402402E1E79A
:100510000000003B000080432DE9F047234D2B886D
:10052000B3F5004F31D0224C224EDFF894A0DFF813
:100530009490DFF89480204F04F0A6FE04F0A4FE0F
:100540000021204607F0CCFB0028F7D0A2682B88BA
:100550002046D35C337007F0A7FB298832789AF8DD
:10056000003007EA012010430BB140F40000D8F836
:100570000020C9F800005368DB03FCD44B1C9BB27D
:10058000B3F5004F10612B80D6D10C4C04F07CFEEB
:100590000021204607F0A4FB0028F7D000260748DA
:1005A000267207F081FB2E80BDE8F087C229042067
:1005B00098290420D029042000FF7F005829042016
:1005C000CA2904201C290420682904202DE9F84F99
:1005D000314EDFF8DC90328899F800302F4D9A4286
:1005E00048D02C46DFF8CC802D4FDFF8CCA004F0AB
:1005F0004BFE04F049FE0021204607F071FB002865
:10060000F7D0AB8932889BB2A9681A448A5C20462D
:10061000A8F800303A7007F047FB04F035FE0021DF
:10062000204607F05DFB0028F7D0B5F80EB0204655
:1006300007F03AFB99F800301FFA8BFB5B4527D196
:100640003088B8F80010174B3A7801441B780AEA52
:10065000012111430BB141F40001134A134B1268FD
:1006600019605368DB03FCD4431C9BB25B451161EA
:100670003380BCD1094C04F007FE0021204607F06E
:100680002FFB0028F7D000230448EB8107F00CFB78
:1006900000233380BDE8F88FC22904209829042064
:1006A000D1290420CA290420682904201C290420F7
:1006B000C9290420C429042000FF7F00002480B53C
:1006C000314D3249324A334BDFF8E0A082B0284640
:1006D0000C80314914701C70CAF8005004F0CCFB37
:1006E0004FF07E531821024600912846214601937F
:1006F0000223FFF77FFEDAF80020284D1368DFF8A9
:10070000B09043F00103264C264E274FDFF8A4801B
:10071000136004F0B9FD04F0B7FD0021284607F08E
:10072000DFFA0028F7D02B7A284689F8003007F046
:10073000BBFA04F0A9FD0021204607F0D1FA0028F9
:10074000F7D0B4F80EA0204607F0AEFA1FFA8AFAE6
:100750000021384686F800A007F0C2FA68B998F878
:10076000003032782BB112B1FFF730FFD1E7FFF73D
:10077000D3FE3378002BCCD0F6E73B7A384688F8A6
:10078000003007F091FAEAE700002050C229042067
:10079000D0290420D129042080800010882304203F
:1007A00098290420C92904205829042068290420F4
:1007B000CA290420CC29042008B5032200200449BA
:1007C00005F07AFEBDE80840002005F02DBE00BF10
:1007D000CC15002008B502220020044905F06CFE6B
:1007E000BDE80840002005F01FBE00BFC81500206E
:1007F00010B50378427880781344DBB2984282B017
:100800000ED03F2301220DF1070100208DF80730A3
:1008100005F052FE002002B0BDE8104005F004BE15
:100820004F23094C01220DF10701207000208DF8A3
:10083000073005F041FE002005F0F6FD0122034BD4
:100840001A7002B010BD00BFD2290420CD290420A7
:1008500010B50378427880781344DBB2984282B0B6
:100860000ED03F2301220DF1070100208DF8073043
:1008700005F022FE002002B0BDE8104005F0D4BD16
:100880004F23094C01220DF10701207000208DF843
:10089000073005F011FE002005F0C6FD0122034BD4
:1008A0001A7002B010BD00BFD4290420CD29042045
:1008B00010B50378417882780B44DBB29A4282B05B
:1008C0000ED03F2301220DF1070100208DF80730E3
:1008D00005F0F2FD002002B0BDE8104005F0A4BD17
:1008E0004FF0000311481249124C62F3070362F300
:1008F0000F23238002700A7004F0EAFC00222146D4
:10090000104607F0C9F904F015FD4F2301220DF13F
:10091000070100208DF8073005F0CEFD002005F01E
:1009200083FD0122044B1A7002B010BDD2290420AD
:10093000D429042064290420CD2904202DE9F0477E
:100940001E4A8EB093699906FCD401781B4B116046
:100950009C6914F02004FBD14278DFF864801A60AF
:1009600001F0B8FF05460E46DFF850900DF1040A7D
:10097000002703E0D9F81830DA0613D501F0AAFFF2
:10098000401B61EB0601804577EB0101F2D2224664
:1009900001A9012005F090FD012005F045FD0EB0F4
:1009A000BDE8F087054A9369DB06FCD4013413687F
:1009B000E4B2342C0AF8013BDAD1E8E70000074042
:1009C0009F8601002DE9F04103782249102B82B067
:1009D0002BD08B699D06FCD410231E4A0B609369B3
:1009E0009C06FCD41023136001F074FF002704461A
:1009F0000D46194EDFF85C8003E0D8F81830DA06AF
:100A00001FD501F067FF001B61EB0501864277EB04
:100A10000101F2D2002201A9012005F04DFD0120C3
:100A200005F002FD02B0BDE8F0818B699806FCD4A8
:100A30001023084A0B60936913F02003FBD1136065
:100A4000D2E7044A9369DB06FCD4136801228DF8CF
:100A50000430E0E7000007409F860100F0B583B056
:100A6000074601F037FF4CF2503604460D4608E0C9
:100A70004FF0FF30002104F0C9FE002005F07EFC9D
:100A800000BB01F027FF001B61EB0501B04271F1D3
:100A90000001EDD33B787978BA780B441344FA78A7
:100AA000DBB29A4216D03F23012200200DF107014C
:100AB0008DF8073005F000FD002003B0BDE8F040E0
:100AC00005F0B2BC01220020F91C05F063FC0028EF
:100AD000D7D0DFE7012200200049EBE7D22904202C
:100AE000F0B583B0074601F0F5FE4CF250360446EF
:100AF0000D4608E04FF0FF30002104F087FE002093
:100B000005F03CFC00BB01F0E5FE001B61EB0501BC
:100B1000B04271F10001EDD33B787978BA780B449B
:100B20001344FA78DBB29A4216D03F230122002008
:100B30000DF107018DF8073005F0BEFC002003B071
:100B4000BDE8F04005F070BC01220020F91C05F062
:100B500021FC0028D7D0DFE7012200200049EBE785
:100B6000D2290420F0B583B0074601F0B3FE4CF261
:100B7000503604460D4608E04FF0FF30002104F0E7
:100B800045FE002005F0FAFB00BB01F0A3FE001BB0
:100B900061EB0501B04271F10001EDD33B7879784A
:100BA000BA780B441344FA78DBB29A4216D03F234A
:100BB000012200200DF107018DF8073005F07CFCC3
:100BC000002003B0BDE8F04005F02EBC012200205B
:100BD000F91C05F0DFFB0028D7D0DFE70122002059
:100BE0000049EBE7D42904202DE9F0438FB00746F4
:100BF00001F070FE4CF2503604460D4609E04FF00D
:100C0000FF30002104F002FE002005F0B7FB0028B1
:100C100040D101F05FFE001B61EB0501B04271F1B4
:100C20000001ECD36C46EC46B7F80080284E97F8EC
:100C300002E098FA98F39BB24EEA032E0FCE0FC44F
:100C400096E8070084E8070007ADBCE80F000FC571
:100C500094E80700DFF8809085E80700CE4521D0B2
:100C60001C4B9E4529D00D339E452ED001339E4509
:100C700029D045F24223984523D044F24253984567
:100C80001DD045F24233984508BF06230BD00FB064
:100C9000BDE8F08301220020B91C05F07BFB002891
:100CA000B7D0BFE7002338460EAA02EB830353F800
:100CB0001C3C0FB0BDE8F04318470123F3E70523C0
:100CC000F1E70423EFE70323EDE70223EBE700BF9F
:100CD0009C80001045454200525242002DE9F043ED
:100CE00083B0074601F0F6FD4FF000084CF2503695
:100CF00004460D4609E04FF0FF30002104F086FD68
:100D0000002005F03BFB00287FD101F0E3FD001B34
:100D100061EB0501B04271F10001ECD397F802805C
:100D2000B7F8039001F0D6FD4CF2503604460D465C
:100D300009E04FF0FF30002104F068FD002005F0CD
:100D40001DFB00286FD101F0C5FD001B61EB050103
:100D5000B04271F10001ECD37A78BB783979134451
:100D60003A781344FA7852FA83F37A7951FA83F392
:100D700052FA83F39DF80420DBB29A4242D189F4FF
:100D8000004909EB0823B3F5004F4FEA082439D88E
:100D90002A4D0021284606F0A3FF0028F9D0284D4F
:100DA0002968002C47D0494408460023671850F8AA
:100DB000042B03F07F36534002F07F32324403F0BD
:100DC0008033874283EA0203F1D1C3F307221A4436
:100DD000C3F30740024402EB1363DBB22246002058
:100DE0008DF8073005F068FB01220DF107010020A6
:100DF00005F062FB002005F017FB10482B688360AC
:100E000006F052FF03B0BDE8F08308F10201C8F11B
:100E100003020020394405F0BDFA8044B8F1020F06
:100E20007FF673AF7AE70122002001A905F0B2FA3C
:100E3000002888D090E723464944CFE7982904202A
:100E4000542904202DE9F04383B0074601F042FD08
:100E50004FF000084CF2503604460D460AE04FF0C1
:100E6000FF30002104F0D2FC002005F087FA0028B2
:100E700040F0978001F02EFD001B61EB0501B042B0
:100E800071F10001EBD397F80180B7F80290B8F147
:100E9000000F08BF4FF4807801F01CFD4CF2503673
:100EA00004460D460AE04FF0FF30002104F0AEFC8E
:100EB000002005F063FA002840F0818001F00AFD6F
:100EC000001B61EB0501B04271F10001EBD3BA7870
:100ED0007B78397913443A781344FA7852FA83F3D9
:100EE0007A7951FA83F352FA83F39DF80420DBB246
:100EF0009A4253D199FA99F4A4F50044A4B204EBB0
:100F00000803B3F5004F49D8334D0021284606F0B9
:100F1000E7FE0028F9D0314D08F1FF33152B286882
:100F200056D901190F46002308F4FE7606EB010C92
:100F300057F8042B03F07F3E534002F07F32724497
:100F400003F08033674583EA0203F1D1C3F307223C
:100F50001A44C3F307473A4402EB1363B045DBB2CC
:100F600008D03444204410F8012B1344421A904511
:100F7000DBB2F8D8424600208DF8073005F09CFA25
:100F800001220DF10701002005F096FA002005F07E
:100F90004BFA11482B68836006F086FE03B0BDE86B
:100FA000F08308F10201C8F102020020394405F083
:100FB000F1F98044B8F1010F7FF65CAF63E70122DD
:100FC000002001A905F0E6F900283FF477AF7EE79D
:100FD000002301191E46C4E798290420542904203F
:100FE0002DE9F04F4378074683B0002B00F0DA80FC
:100FF000994603F1020B03F1040801F06BFC4FF07A
:10100000000A4CF2503604460D460AE04FF0FF301D
:10101000002104F0FBFB002005F0B0F9002840F0AF
:10102000AB8001F057FC001B61EB0501B04271F190
:101030000001EBD3B7F802A001F04CFC4CF25036A3
:1010400004460D460AE04FF0FF30002104F0DEFBBD
:10105000002005F093F9002840F09B8001F03AFC55
:10106000001B61EB0501B04271F10001EBD3B8F157
:10107000160F9DF8041040F29C803C46002308F4B3
:10108000FE703D1854F8042B03F07F36534002F0F5
:101090007F32324403F08033AC4283EA0203F1D161
:1010A000C3F307221A44C3F30744224402EB13623A
:1010B0008045D2B20AD001383844034610F8014FB7
:1010C0000233DB1B22449845D2B2F6D8914250D16C
:1010D0009AFA9AF4A4F50044A4B204EB0903B3F518
:1010E000004F46D8344D0021284606F0F9FD00286F
:1010F000F9D0DFF8D080314ED8F8000004374A46E6
:101100003946204406F0BEFB306839464A46204442
:1011100006F0B8FBD8F800302748AB6006F0C4FDF5
:10112000366804F0D5F831460122204606F0B4FDB9
:1011300004F000F9204E0021304606F0D1FD0028D1
:10114000F9D0D8F800301C48A5F80E90AB60AC81FF
:1011500006F0AAFD4F2301220DF1070100208DF8B2
:10116000073005F0A9F9002005F05EF90122144BC3
:101170001A7003B0BDE8F08F0AF10201ABEB0A026E
:101180000020394405F006F98244DA45FFF449AFFE
:1011900050E70122002001A905F0FCF800283FF4E7
:1011A0005DAF64E74FF482784FF4817B4FF4807930
:1011B00023E7002002467EE7982904201425042016
:1011C000CD290420542904202DE9F04782B0074698
:1011D00001F080FB4CF2503604460D460AE04FF019
:1011E000FF30002104F012FB002005F0C7F80028B2
:1011F00040F0CE8001F06EFB001B61EB0501B042B8
:1012000071F10001EBD397F8028001F063FB4FEA24
:10121000082808F1020A4FF000094CF25036044643
:101220000D461FFA8AFA0AE04FF0FF30002104F061
:10123000EDFA002005F0A2F8002840F0B28001F09D
:1012400049FB001B61EB0501B04271F10001EBD3DA
:1012500001F040FB4CF2503604460D460AE04FF0D8
:10126000FF30002104F0D2FA002005F087F80028B2
:1012700040F0858001F02EFB001B61EB0501B042C0
:1012800071F10001EBD308F10403152B9DF8040064
:1012900008F1050140F292803E4600234FEA910C8E
:1012A0004FEA8C0407EB8C0C56F8042B03F07F35C7
:1012B000534002F07F322A4403F08033664583EACC
:1012C0000203F1D1C3F307221A44C3F307452A44AA
:1012D00002EB1362D2B2013C3C44234614F8015F96
:1012E0000233DB1B2A449942D2B2F6D8904243D152
:1012F000B7F8035085F4004508EB0503B3F5004F3C
:101300003AD8304C0021204606F0EAFC0028F9D0FB
:10131000DFF8C0902C4ED9F8000005374246394618
:10132000284406F0AFFA306842463946284406F0B1
:10133000A9FAD9F800302348A36006F0B5FC346858
:1013400003F0C6FF01222146284606F0A5FC03F063
:10135000F1FF4F2301220DF1070100208DF8073026
:1013600005F0AAF8002005F05FF80120174A184997
:10137000137808700344137002B0BDE8F0870122AF
:10138000002001A905F006F800283FF473AF7AE7C2
:1013900001220020B91C04F0FDFF00283FF42AAF11
:1013A00031E709F10301AAEB09020020394404F0F6
:1013B000F1FF8144CA453FF642AF49E70022144697
:1013C00089E700BF9829042014250420D32904208C
:1013D000CD290420542904202DE9F04782B0074686
:1013E00001F078FA4FF000084CF2503604460D46F2
:1013F00009E04FF0FF30002104F008FA002004F06B
:10140000BDFF002853D101F065FA001B61EB050117
:10141000B04271F10001ECD3BA7878783C78F97871
:1014200083183D7923447E7951FA83F397F806C0F7
:1014300055FA83F397F807E02D4C56FA83F397F8A3
:1014400008805CFA83F397F8099094F801A05EFA9B
:1014500083F358FA83F359FA83F39245BF7ADBB2E8
:1014600016D1A2788A4213D1E278AA4210D1227909
:10147000B2420DD1627962450AD1A279724507D193
:10148000E279424504D1227A4A4501D19F421BD0DC
:101490003F2301220DF1070100208DF8073005F0F0
:1014A0000BF8002002B0BDE8F04704F0BDBF08F122
:1014B0000201C8F109020020394404F06BFF8044A6
:1014C000B8F1080F9FD9A7E74F230A4C01220DF16D
:1014D0000701607000208DF8073004F0EDFF002058
:1014E00004F0A2FF0122044B1A7002B0BDE8F0879D
:1014F000D0150020C8150020CD290420F0B583B0F8
:10150000074601F0E7F94CF2503604460D4609E073
:101510004FF0FF30002104F079F9002004F02EFF95
:10152000002836D101F0D6F9001B61EB0501B0426D
:1015300071F10001ECD33B787978BA780B44DBB2D7
:101540009A422ED11B490A220C784B788878234482
:10155000CC7850FA83F3087954FA83F34C7950FA33
:1015600083F3887954FA83F3CC7950FA83F3087AB9
:1015700054FA83F350FA83F3487A50FA83F3002045
:101580004B7204F099FF002003B0BDE8F04004F076
:101590004BBF01220020B91C04F0FCFE0028C1D082
:1015A000C9E73F23012200200DF107018DF8073024
:1015B000E7E700BFD015002045F24E320388934282
:1015C00075D046F64E62934201D0FFF705BF2DE974
:1015D000F04182B0054601F07DF94FF000084CF271
:1015E000503704460E4609E04FF0FF30002104F06A
:1015F0000DF9002004F0C2FE00284BD101F06AF979
:10160000001B61EB0601B84271F10001ECD3A9782F
:101610006B782878EA780B44034428796C7952FA7D
:1016200083F3AE7950FA83F3EF7954FA83F395F8A4
:1016300008C056FA83F395F809E057FA83F35CFA89
:1016400083F395F80A805EFA83F3DBB2984530D1D4
:10165000254B05F10308A3EB0808B8F1020F37D9B1
:10166000D5F80210D5F8062043F80119C3F8052073
:101670004F2301220DF1070100208DF8073004F0FF
:101680001BFF002004F0D0FE0122184B1A7002B09C
:10169000BDE8F08108F10201C8F1090200202944E7
:1016A00004F078FE8044B8F1080FA7D9AFE7FFF740
:1016B00025BF3F2301220DF1070100208DF80730DF
:1016C00004F0FAFE002002B0BDE8F04104F0ACBE28
:1016D00003F801199A70D8701C715E719F7183F8BC
:1016E00007C083F808E0C3E7D1150020CD29042006
:1016F00010B50D4C4FF41641204601F039F9022186
:10170000002000F0E7F90221012000F0E3F9204673
:1017100008210023012201F0ADF92046BDE8104068
:10172000012101F0DFB900BF000007402DE9F041C1
:101730000D881DB900252846BDE8F0810F460446F6
:101740006DBAADB201222946124897F8008000F028
:101750007DF96668002EEED004F108021346344687
:101760004FEA082102E053F8044C5CB133F808CC8E
:1017700008338C45F7D13846A047DBE752F8046CB4
:10178000002ED8D032F8083C0832AB42F6D13846A9
:10179000B047CFE71C7E00102DE9F04F89B005F06F
:1017A00063F9FFF7A5FF4FF4005001F0F1FE834607
:1017B000402001F0EDFE80464FF000098B4B08F110
:1017C000080293E8030088E8030008F11001009183
:1017D00008F1580108F11800039108F16001019027
:1017E000049108F1680003F10801059003C982E83B
:1017F0000300009A03F1100103C908F1200482E8F4
:101800000300019A029403F1180103C982E803005E
:10181000029A03F1200103C908F1280782E80300B6
:1018200003F1280292E8030008F1300687E803007C
:1018300002F1080797E8030008F1380586E803007D
:1018400002F1100696E8030008F1400485E8030061
:1018500002F1180595E8030084E8030002F1200472
:1018600094E80300039A083408F1480E8EE8030058
:1018700094E8030008F1500C08348CE8030094E865
:10188000030082E80300049A6833083494E80300F4
:1018900082E8030093E80300059BDFF870A183E86A
:1018A0000300A8F87090C8F87490514B1B781BB1D6
:1018B000504B1B785B0753D001F00CF800274CF21B
:1018C000503604460D4609E04FF0FF30002103F08A
:1018D0009DFF002004F052FD00285ED100F0FAFFC9
:1018E000001B61EB0501B04271F10001ECD35946D8
:1018F0004046FFF71BFF00285FD14FF0FF3000216B
:1019000003F084FF012004F039FD002867D1404630
:1019100006A9FFF70BFF00285BD14FF0FF30002135
:1019200003F074FF022004F029FD00284BD107A921
:101930004046FFF7FBFE014618B101222E4800F099
:1019400085F84FF400520021584605F01FFFC820CB
:101950000021ADF81890ADF81C9000F01BFFA4E733
:101960000021504606F0BCF90028F9D0012350466A
:101970008AF8083006F098F9204C0021204606F03D
:10198000AFF90028F9D01E4B1C481B78037206F0F3
:101990008BF9174B83F800908EE7C7F102020BEB2F
:1019A0000701002004F0F6FC0744012F96D95946A0
:1019B0004046FFF7BBFE00289FD001460122114898
:1019C00000F044F899E7022207A9104604F0E2FC6F
:1019D000ADE7014601220C4800F038F89DE70222ED
:1019E00006A9012004F0D6FC91E700BFB8800010E2
:1019F000CD290420D3290420F47D0010882304205D
:101A0000D2290420B47D0010D47D00105829042070
:101A100008B5054800F092FB044800F08FFBBDE8D4
:101A20000840034800F08ABB982904205829042064
:101A300088230420004870470000101000487047B9
:101A4000009010100048704700F00F1010B54B1CAC
:101A5000A2B00CD00C46194988420DD00346802113
:101A600002A822BB164A009403F078F80BE0134A50
:101A7000904215D122B010BD2346802102A8C2B9E0
:101A8000104A03F06BF802A805F072FF02A90246A3
:101A9000022004F011FD022004F0C6FC22B010BDAB
:101AA00003468021084A02A803F058F8EBE7074AEA
:101AB000D9E7074A03F052F8E5E700BF407E00107F
:101AC0004C7E0010447E0010287E0010387E0010EE
:101AD000307E001010B44FF480740C4B53F820206B
:101AE00003EB8003C00082F0400200F1804003F568
:101AF000805C02F0C00200F5203003F54053CCF8C2
:101B0000002041601C605DF8044B70470480034076
:101B100030B44FF0000343EC440043EC4000052593
:101B20004FF480740B4BC20053F8201003EB80007D
:101B300081F0400102F1804303F5203301F0C0023F
:101B400000F5805100F540500A605D60046030BCD3
:101B5000704700BF0480034010B44FF480711F240D
:101B60000C4B53F8202003EB8003C00082F04002AE
:101B700000F1804003F5805C02F0C00200F52030E7
:101B800003F54053CCF8002044605DF8044B196025
:101B9000704700BF048003400FB400B583B0049CBD
:101BA000074803F04BF93CB105A92046019102F02A
:101BB000EBFF044803F042F9012002F0FDFF00BFF3
:101BC000547E0010647E0010EFF3108072B6064B56
:101BD000D3E8CF1F01220029FAD1C3E8412F002901
:101BE000F6D1BFF35F8F7047FF2104200023034A23
:101BF000C2E88F3F80F31088704700BFFF210420A8
:101C000070B58646EFF3108572B6124CD4E8CF6FEC
:101C10000120002EFAD1C4E8460F002EF6D1BFF302
:101C20005F8F4FF0010CC80801F007030CFA03F3B3
:101C30001EF800C01CEA030608D14CEA030C0EF89B
:101C400000C0C4E88F6F85F3108870BD1046FFF7A1
:101C5000A3FF00BFFF210420F8B5EFF3108572B693
:101C6000234CD4E8CF7F0126002FFAD1C4E8476F78
:101C7000002FF6D1BFF35F8F9A4227D80126D708ED
:101C800010F807E002F0070C06FA0CFC1EEA0C0F35
:101C900000EBD2070DD125E04FEAD20E10F80EE08E
:101CA00002F0070C06FA0CFC1EEA0C0F00EBD20740
:101CB00018D001329342EFD24FF0FF300023C4E836
:101CC0008F3F85F31088984207DBF8BD0023C4E8F6
:101CD0008F3F85F310884FF0FF300029F5D006982C
:101CE000FFF75AFF4EEA0C0E104687F800E0E5E7D2
:101CF000FF210420044A1078431CDBB2182B28BFB4
:101D000010231370704700BFDA15002010B5054C82
:101D100082B001461F23182200940348FFF79CFF5E
:101D200002B010BD687E00109C2404204FF0E02219
:101D3000936843F000539360704700BF0021044B49
:101D400003F12002C3E88F1F01339342FAD1704799
:101D5000F42104204FF0E0234FF08032C3F8002438
:101D6000C3F80424C3F80824C3F80C24C3F81024CF
:101D7000C3F81424C3F81824C3F81C24C3F820247F
:101D8000C3F82424C3F82824C3F82C24C3F830242F
:101D9000704700BF012300F01F029340400941B18A
:101DA000800000F1604000F56140C0F880310360C0
:101DB0007047024A203042F82030704700E100E0CE
:101DC0000123064A410952F8212000F01F008340F8
:101DD000134214BF01200020704700BF00E100E063
:101DE000F8B50D46EFF3108772B6124ED6E8CF2F36
:101DF0000123002AFAD1C6E8423F002AF6D1BFF3F8
:101E00005F8F0D4B00F110049B680C4A53F824308F
:101E1000934203D0994201D001F06AF9064B9B68C6
:101E200043F82450BFF35F8F0023C6E88F3F87F34A
:101E30001088F8BDFD21042000ED00E01D01001018
:101E40002DE9F04F81468B46164683B0EFF31083A1
:101E500072B6DFF8D0A10093DAE8CF1F0123002982
:101E6000FAD1CAE8413F0029F6D1BFF35F8F664B34
:101E700093F90040002CC0F2A080644D04EB4407AD
:101E800005EB870898F8061009F110091970604BE6
:101E9000BF009B6853F829006300411B2F292FD9ED
:101EA0005C49884240F0A4801C445B4B02372F44BD
:101EB000043BDB1BC3F34A036FEAC3434FF42141E6
:101EC0006FEAD34325F8241005EB840463804BF6B6
:101ED0000153A380FF2348F00100E671C4F808B065
:101EE000A3714B4B9B6843F82900BFF35F8F00231E
:101EF000CAE88F3F009B83F3108803B0BDE8F08FE2
:101F000020F0010E9EF80710B1422ED84FF4214365
:101F1000EB53414BB91C2944043B04375B1A2F4453
:101F2000AEF104013D4CC91BC1F34A012143A8F89D
:101F30000410C3F34A033A492343A8F802304AF68F
:101F4000AA2073465B1B5B415843000D88F807606D
:101F500088F80600C8F808B048F00100CEF8001074
:101F6000BFE7D179B1422ED996469EF906C00CEB57
:101F70004C02BCF1000F05EB8202F2DA4BF6015184
:101F80000EF10402A8F10407BF1AC7F34A076FEA6B
:101F9000C7476FEAD7478EF8064003EB0408204C8A
:101FA00005EB8803AEF8047045F82840998083F863
:101FB00006C0DE71C3F808B093E701F099F8124B40
:101FC00093F9004059E7724632F8041F490514D4CA
:101FD0004915023102EB410101916FF00701C91B64
:101FE000019F491B3944C1F34A0141F46041C9E7EB
:101FF000019301F07DF8019B56E701F5FF1101F512
:10200000FF511F31E4E700BFCE290420DC1500207A
:1020100000ED00E01D0100100C16002000E0FFFFA5
:1020200001488047FD210420F0B5EFF30585EDB2AE
:10203000EFF3108C72B62649D1E8CF2F0123002A86
:10204000FAD1C1E8423F002AF6D1BFF35F8F214E9B
:1020500040F0010EB4684AF6AA2354F825701E4ACF
:102060000446A41A644163431B0D77455BB21BD041
:1020700092F906409C421CD092F912409C4223D017
:1020800092F91E409C4221D092F92A409C4208BFFE
:1020900003240FD0114A0024157813708571C1E80C
:1020A0008F4F8CF31088F0BDB2680D4C42F825407C
:1020B000F0E7002404EB440402EB8402FF24947153
:1020C0004BF601549480E5E70124F3E70224F1E79D
:1020D000FD21042000ED00E0DC150020CE290420C5
:1020E0001D010010014B0B4403607047F4210420D4
:1020F00070B5104C104DAC420ED2FF26236863B170
:10210000FFF7F8FD01462046FFF7ECFFA680BFF37E
:102110005F8F0834AC42F1D370BDFFF7EBFD014691
:102120002046FFF7DFFF2671BFF35F8F0834AC4214
:10213000E4D370BDB81B0020C81B002010B50446B6
:10214000FFF7D8FD01462046FFF7CCFFFF232371A0
:10215000BFF35F8F10BD00BF10B504460120FFF72D
:10216000D5FD034B03442360BFF35F8F10BD00BF59
:10217000F42104200D4B1A68EFF3108172B6D2E8F7
:10218000CFCF0120BCF1000FF9D1C2E84C0FBCF158
:10219000000FF4D1BFF35F8F00221B68C3E88F2FBD
:1021A00081F3108840BF002000217047942904204B
:1021B0002DE9F04F2DED028B85B0EFF30583DBB2F7
:1021C000103B9A0818BF01224FF0010103F00300F1
:1021D00018BFAB4DAB4B08BFAB4D00EB820201FA11
:1021E00000FB53F8226005F541539FEDA38B01904E
:1021F000C3F804B0CDF800B02AE0B388180440F169
:102200008C80B379002B40F0D580B6F908100029F6
:10221000C0F21581736901EB410103EBC103D3E9FE
:102220000247B7F1FF3F08BFB4F1FF3F09D0019B60
:1022300005EB8301AB6A0A69D21AE31A934238BFED
:102240000C61284600F03EFBA042B941C0F2F78085
:10225000B6F90840009B002CEB63CEDBD6F8149057
:1022600004EB440A284609EBCA07D7E902B800F094
:1022700029FB584571EB0801BFDBB8F1000FC0F234
:10228000C180D7E90431814A934200F0EA807A881C
:10229000B6F9080092B242EA0040984702460B465F
:1022A00052EA030100F0AE80002B80F2CE80BBEB3F
:1022B000020B68EB030839F93A30C7E902B8002B82
:1022C0009BDB716903EB430201EBC202D2E90270AE
:1022D000BB4578EB000C4FEA43028EDBB4462CF88A
:1022E000083F0BE031F93230F446002B0DDB03EBF5
:1022F000430001EBC0005A00D0E90270BB451A440C
:1023000078EB000001EBC20EECDA29F83A30ACF8B9
:102310000040B38818043FF574AF3369EFF31082BF
:1023200072B6D3E8CF0F01210028FAD1C3E8401FCD
:102330000028F6D1BFF35F8F4FF6FF74B0880023FB
:10234000316900B2B480C1E88F3F82F310889842AF
:10235000FFF657AF0746A946746906F1080807EB70
:10236000470E04EBCE03D3E90250B6F90830C44659
:10237000002BA8BFB34605DA0FE034F93A30944693
:10238000002B09DB03EB430A04EBCA02D2E902612A
:10239000B54270EB0101F0DA5E46ACF8007034F93A
:1023A0003E7024F83E30002FD9DAB3794D46002B29
:1023B0003FF42BAF0023B371B6F9083006F10808DB
:1023C000591C3CD01946776903E080465A1C3FF4FB
:1023D0001EAF03EB430207EBC200B0F802C01C467D
:1023E0001CF4004F9E4637F93230EED08C4280ED1F
:1023F000028B05D0A8F80030318927F832103481DB
:102400007146E3E739F83A3033813369EFF31082EC
:1024100072B6D3E8CF0F01210028FAD1C3E8401FDC
:102420000028F6D1BFF35F8F7388316929F83A30FD
:1024300000237480C1E88F3F82F31088DDE640BF3F
:1024400005B0BDEC028BBDE8F08F2846CDE9022334
:1024500000F038FA029A039B10EB020B43EB0108E1
:1024600029E708460B69029198470028CAD00299CB
:10247000D1E9002314E700BFFFFFFFFFFFFFFFFFCD
:1024800000800B406C29042000000B40B12100109B
:102490002DE9F84F364C25692DB1BDE8F84F0A21DA
:1024A0003448FFF71FBEDFF8E4800321404600F008
:1024B000F7F90326C4F80C80FFF71CFC4FF0504CD2
:1024C0002D4B267003442361DCF800300F2163702C
:1024D000636961801D834FF00405A3F878504FF0C5
:1024E0000505A3F890504FF00605A3F8A8504FF04B
:1024F00007050E214FF6FF7208274FF00A0EA3F8CA
:10250000C0504FF001094FF00C0C4FF0020B4FF090
:10251000090A0D204FF00B05A3F868111749A28096
:10252000A3F808E1A160A3F848B0A3F8F0A0A3F8CD
:102530002051A3F838C1A3F85001A3F83090A3F8B4
:102540006060A3F8D8701A800D4B3046C8F8207030
:102550000C49DC60FFF744FC49463046FFF71AFCA3
:10256000094B0A211F640348BDE8F84FFFF7BABDC5
:102570002416002094290420F4210420FFFF1000D9
:102580006C290420B121001000200B4000000B40FA
:102590000146F0B50069EFF3108772B6D0E8CF5F5F
:1025A0000124002DFAD1C0E8454F002DF6D1BFF32C
:1025B0005F8FB1F902E04C690EEB4E0CBEF1000FDB
:1025C0004FEACC0504EBCC0C3DDB605B0026488079
:1025D0000869C0E88F6F87F31088BCF80200CCE967
:1025E00002230130C0F30E00012838BF0120059BF3
:1025F000ACF80200CCF81030069B40EA0E40CCF854
:1026000014300B69EFF3108272B6D3E8CFCF0127F5
:10261000BCF1000FF9D1C3E84C7FBCF1000FF4D13D
:10262000BFF35F8F8B886353A1F804E00B69C3E8A5
:102630008F6F82F310880122CB68097803F501536C
:102640008A405A60F0BD00230A69C2E88F3F87F3D1
:1026500010884FF0FF30F0BD03464089B0EB214FAA
:1026600037DD58690A1402EB420210B500EBC200D4
:102670001C69EFF3108C72B6D4E8CFEF0122BEF1E3
:10268000000FF9D1C4E84E2FBEF1000FF4D1BFF313
:102690005F8F428889B292B28A4207D000221B69BA
:1026A000C3E88F2F8CF31088002010BD42F4004245
:1026B00042800121002218699971C0E88F2F8CF3A4
:1026C00010881C78DA68084602F50153A140596069
:1026D00010BD0020704700BF2DE9F041861F41F179
:1026E000FF35B04271EB050338BF002682B038BF1A
:1026F000354604460F4600F0EDF8301A65EB01034D
:10270000012873F1000306DA2046394602B0BDE81D
:10271000F04100F01BB900F0DDF8864265EB0101E5
:1027200000290ADB0021174B3246009316482B463E
:102730000191FFF72DFF0028E6DB4FF0000C134856
:10274000134A436A9D4204D8816AB142DCD29D4259
:10275000DAD11368EFF3108172B6D3E8CF8F5FF050
:10276000010EB8F1000FF8D1C3E848EFB8F1000F3F
:10277000F3D1BFF35F8F1368C3E88FCF81F3108865
:1027800020BFDEE7752100102416002000000B405A
:102790009429042038B504460D4600F09BF84FF00C
:1027A000FF326FF00043201845EB0101824273EBCA
:1027B000010438BF1946BDE8384038BF1046FFF75E
:1027C0008BBF00BF10B5044600F084F84FF47A7355
:1027D0004FF0FF3C6FF00042E4FB0301BDE8104006
:1027E000844572EB01033CBF60461146FFF774BF9E
:1027F000F0B506460D4683B0EFF30584E4B2002C35
:1028000035D1244F3A78F96804328B6A51F8222086
:10281000D21AC31A934207D320BF1F4B586AA8424B
:102820001FD2002003B0F0BD00F054F8864265EBE3
:102830000101002911DB194B3846CDE9003432463D
:102840002B46FFF7A5FE011E07DD134B5A6AAA426D
:1028500019D220BF0F48FFF7FFFE0F4B586AA8425E
:10286000DFD39B6A9E4209D8012003B0F0BD0A4B1A
:10287000586A8842D5D39B6AB342F5D2401B18BF31
:10288000012003B0F0BD9B6A9E42E3D9AA42E1D188
:10289000DFE700BF2416002000000B407521001068
:1028A00010B4054B054C064AA04214BF1846581CEC
:1028B0005DF8044BFFF7A4B9A024042000800B406E
:1028C000847E00100346416A0A46986A596A8A4221
:1028D000FAD17047034B596A0A46986A596A91427D
:1028E000FAD1704700000B4010B4174A536A9C4657
:1028F000946A536A6345FAD1001959414FF00002B6
:1029000028BF01220346CAB10F4B596A4B1C08BFAE
:102910000B4608D04FF0FF310B460B48426A8A4203
:10292000FCD38A4207D1084A02E0506A884202D1A9
:10293000906A9842F9D35DF8044B7047024A526A94
:102940009142EAD8EDE700BF00000B40074A536A06
:102950009942FCD8994207D1044B02E05A6A91424D
:1029600002D19A6A8242F9D3704700BF00000B403F
:10297000F8B5054606200E4600F048F9002842D07A
:10298000354A3648954214BF4FF080624FF00062DE
:10299000334B344902601A608C6832EA0404FBD17C
:1029A0002D4B4FF48071EB1AB3FA83F32E4A5B0977
:1029B000062022F8131000F029F9C300B3FBF6F348
:1029C0000133DA0920D1402601216962AA622F6B06
:1029D000FB0722D42B46002253F82C1F062003F5B8
:1029E000805422602F6300F011F940F2013103227C
:1029F0008000B0FBF6F0EB6A83F0700303F07E0317
:102A000023602963AA64F8BD4FF6FE718A421BD980
:102A100022464FF6FF71154ED7E740F2013205F519
:102A200040531A636B6AAC6A062004EB831400F00F
:102A3000EDF80F4BA402A3FB0023DB0A0021B4FB3B
:102A4000F3F0FFF751FFC5E7C3F34503114603EB6E
:102A500082161A46B9E700BF0080074000200240F6
:102A60000030024000000240AC290420C0FF3F00BB
:102A7000757B2B8F013A0539D200F8B5054642EA3D
:102A8000411443B1A3F10103B3FA83F35B0944EAB0
:102A9000830343F002042E6BF3070AD42B4653F84A
:102AA0002C2F624002F06E0203F580531A602E63F1
:102AB000F8BD40F2013205F540531A636B6AAF6A04
:102AC000062007EB831700F0A1F8054BBF02A3FB1C
:102AD0000030C00A0021B7FBF0F0FFF705FFDDE78B
:102AE000757B2B8FF8B5066B0546F3074FEA01148B
:102AF0000AD42B4653F82C2F544004F0100403F54D
:102B000080531C602E63F8BD40F2013200F5405343
:102B10001A636B6AAF6A062007EB831700F076F83A
:102B2000054BBF02A3FB0030C00A0021B7FBF0F049
:102B3000FFF7DAFEDDE700BF757B2B8F00EB400C63
:102B40004FEA8C0C0CF1804C0CF5803CF0B516462D
:102B5000DCF80420051FB2F5803F38BF4FF4803207
:102B6000EDB238BFCCF80420012D2AD94FF400670C
:102B7000254C0CF54052176054F82020B2B9DCF80F
:102B80000020012D82EA461202F0E0020CF5805688
:102B900032602AD94FF4006144F820304FF480337A
:102BA0000CF500521160CCF80430F0BD6769B7FB3A
:102BB000F2FE0EF1010E0EEB4E0EBEF1030EFCD234
:102BC000DDE70129D2D103240CF540521460DCF872
:102BD0000820D207FBD5DCF800200B4C82EA461215
:102BE00002F0E0020CF5805632600122DCF8005061
:102BF0004D4005F00305356002FA01F1DCF80820CC
:102C00000A42FBD0C6E700BFA4240420014B53F8BE
:102C100020007047A4240420584B2DE9F0431C6C7D
:102C20001746B4F5803F38BF4FF480320E464FF060
:102C30000301804683B038BF1A64514A4F4BD163B9
:102C40005C6CE507FCD5DA6B4E4982F0200202F09D
:102C5000E002CA63DB6B494D83F0010303F0030319
:102C6000CB636C6CA407FCD54FF400624FF4803941
:102C7000454B464CDA63464B42466361012133467D
:102C8000C5F840904348009700F056F94FF40061B2
:102C90006B6B07FB06F64B4538BFC5F83490384BD5
:102CA0002269B8FBF6F619633AB16369B3FBF2F334
:102CB000013303EB4303033BFDD2304B31491A6B25
:102CC00002F0E0020A631A6B82F0020202F00302D1
:102CD0000A63996B4807FCD54FF400654FF48032C6
:102CE00029490D632C495A632161196C91424FF0B7
:102CF000030138BF1A64224B204AD963536CD907A9
:102D0000FCD5D36B1F4D03F0E003EB63D36B1B4982
:102D100083F0010303F00303EB634B6C9B07FCD5CB
:102D20004FF480334FF40065174A6661D5630B6436
:102D3000CA6C9A4238BFCB644FF40061104BA26951
:102D400099643AB16369B3FBF2F3013303EB4303D4
:102D5000033BFDD24FF400604FF48031074A094D28
:102D6000936C83F0400303F0E003AB64064B084D23
:102D7000A5619864D16403B0BDE8F0830000014010
:102D8000003001400010014000200140A424042034
:102D9000006CDC0200000540001BB7002DE9F04F7D
:102DA0004FF4A078994685B0CDE902125F4CDFF868
:102DB00084A154450AD908F1FF38A4F53B54B8F171
:102DC0000F0FA4F12004F4D1002069E0072304F5DB
:102DD0003722019403FB03F402F5D872B2FBF4FE30
:102DE00070454FF0010C4FF002074FF003064FF013
:102DF00004054FF005013FD0B3F1010E00F09480BF
:102E00000EFB03F4B2FBF4FB58454CD019B301FBA5
:102E100003F4B2FBF4FB58454FD0E5B105FB03F4D6
:102E2000B2FBF4FB584553D0AEB106FB03F4B2FB42
:102E3000F4FB584557D077B107FB03F4B2FBF4FB22
:102E400058455BD0BCF1000F05D00CFB03F4B2FB7E
:102E5000F4FB83455DD0734603FB03F4B2FBF4FE41
:102E6000704501F1FF3105F1FF3506F1FF3607F13D
:102E7000FF370CF1FF3CBFD104FB1024002CBBD169
:102E80009E464A46DDF808B0DDF80C90012028493E
:102E900001FB08F1CBF80010C9F80030C2F800E0DF
:102EA00005B0BDE8F08F04FB1024002CAED14A46DB
:102EB000DDF808B0DDF80C90E8E704FB1024002CE6
:102EC000ABD14A468E46DDF808B0DDF80C90DDE760
:102ED00004FB1024002CA7D14A46AE46DDF808B00A
:102EE000DDF80C90D2E704FB1024002CA3D14A4655
:102EF000B646DDF808B0DDF80C90C7E704FB1024F7
:102F0000002C9FD14A46BE46DDF808B0DDF80C9093
:102F1000BCE704FB1024002C9DD14A46E646DDF8B0
:102F200008B0DDF80C90B1E7019C44E750262F0073
:102F3000001BB70050F80C0070B4039D04682D030B
:102F400045EA03451B4B002CB3FBF1F3B2FBF3F650
:102F50001FDB194A194B904214BF4FF480424FF4C3
:102F60000042174C1A6003F580531A60A36832EAD6
:102F70000303FBD1212200F5405304330160866036
:102F80001A600268002AFCDA0822C5601A6070BC68
:102F90007047036803F03F038B42DAD18368C3F3C1
:102FA0000B03B342D5D1C36803F4EE23AB42D0D1B7
:102FB000EDE700BF001BB700008005400020024085
:102FC000000002400A4B0B490B4A5960D3681904B0
:102FD000FCD40A4BD26843EA00130949534009481C
:102FE0001940054AC160D3681B04FCD4704700BF78
:102FF000002010400020FE5A000010400000FE5A41
:10300000F001FE5A00101040012300EB4000800048
:1030100000F1804000F5841041600360704700BFFC
:10302000002370B5DB8A04460D46002242E800F218
:10303000520254BF1021042144F252209847864680
:103040002B462246F446BDE870400A214FF48170B9
:10305000604700BF0023DB8A002242E800F25202F0
:1030600001D4102118470421184700BF0023402134
:10307000DB8A184708B5034608462BB193FAA3F339
:10308000B3FA83F341F020001946FFF7C9FF00BFF0
:10309000034AD2F82838002BFBD0BFF35F8F70476C
:1030A00000000E400021044B044ABFF35F8F43F839
:1030B000041B9342F9D170470C080E402C080E40B7
:1030C00010B42F204FF42A64054A064B06491460B9
:1030D000D06019605368002BFCDA5DF8044B704730
:1030E0000080044000A0044000B0FA00704700BF18
:1030F00008B50148FEF750FDA87E001038B5054C14
:10310000054DAC4204D254F8043B9847AC42FAD384
:1031100038BD00BFE87C0010287D001038B5054C94
:10312000054DAC4204D254F8043B9847AC42FAD364
:1031300038BD00BF147D0010287D001010B4074872
:10314000074C084B084A094904601A608B6832EA48
:103150000303FBD15DF8044B704700BF0020024021
:103160007F3BEFEF00300240F6FFF3030000024028
:10317000044BDB6CB3F5004F03D14FF48022024BBC
:10318000DA64704700001150002011504FF0E02227
:10319000044BD2F8881D0B43C2F8883D10EE300472
:1031A000704700BF030330006FF06041044B054AD5
:1031B00019609368DB4333F06043FAD1704700BF76
:1031C000003002400000024010B545F25320FFF7E6
:1031D00041FFBDE8104003460420184710B545F2F2
:1031E0005320FFF737FFBDE8104003460120184782
:1031F000FEF7A4BD10B5054B054C4FF48872184678
:10320000A16804F03FFBA06010BD00BF00000020DB
:1032100000ED00E0002370B52B4C82B0C4F8843080
:10322000FFF74EFF0122294BDA63636C012BFCD1BF
:103230000321264A244B11639C6B012CFCD10226EE
:10324000052521460523224A22480096FFF774FEF1
:1032500021462B46204A21480095FFF76DFE0022AB
:10326000042031461E4BFFF769FC21462846002208
:103270001C4BFFF763FC0022082011461A4BFFF796
:103280005DFC002209201146174BFFF757FC002276
:1032900006201146134BFFF751FC0022114B07206B
:1032A0001146FFF74BFC0420FFF7B0FC00240F4B46
:1032B000A3FB0035AD0CE0B229460134FFF7A4FEB4
:1032C000062CF8D102B070BD000001400030014072
:1032D000002F685900000540008C8647008005409B
:1032E000001BB70080D1F008006CDC0283DE1B43BA
:1032F00086B003B451FC0804CDE9020151FC090475
:10330000CDE9040151EC0A04CDE9060103BCF04704
:10331000BDE800504EEC00C4BDE800504EEC01C4C6
:10332000BDE800504EEC02C400BD000000B5FFF740
:10333000DFFF02E010FE30F4F8D441EC100443EC5F
:10334000112400EE010410EE010480EE200451EC83
:103350001004704700B5FFF7CBFF02E010FE30F419
:10336000F8D441EC100443EC112400EE010410EEFB
:10337000210480EE200451EC3004704700B5FFF7C3
:10338000B7FF02E010FE30F4F8D410B541EC1004A1
:1033900043EC112451EC040453EC0524A0FB024C33
:1033A0005FF0000EE0FB03CEE1FB02CE4CEC2044CC
:1033B0000024E1FB03E444EC30E480EE200451EC13
:1033C0005004BDE81040704700B5FFF791FF02E0E0
:1033D00010FE30F4F8D441EC100443EC112451EC0D
:1033E0002104A0FB01126FEA820252FB100052FB83
:1033F00012F252FB1000A0EBD07C53EC04245CFBD7
:1034000013F153EC1524A1FB022001FB030053EC44
:103410004424A2EB000050FB1CF24FEA111312EB04
:10342000017043EBE27140EA515020EA915020F0E4
:10343000070053EC7524A0FB023C53EC752400FB01
:1034400003CC01FB02CC53EC0424ACEB824C40EAED
:103450005C70A0F1010041EC400480EE200451ECCE
:103460007004704700B5FFF743FF02E010FE30F430
:10347000F8D440EC700400EE010410EE210480EE5C
:10348000200451EC3004704700B5FFF731FF02E033
:1034900010FE30F4F8D440EC600400EE010410EEAD
:1034A000210480EE200451EC3004704700B5FFF792
:1034B0001FFF02E010FE30F4F8D441EC800400EE6F
:1034C000010410EE010480EE400410EE1304704776
:1034D00000B5FFF70DFF02E010FE30F4F8D441EC28
:1034E000800400EE010410EE010480EE400410EEB2
:1034F0003304704700B5FFF7FBFE02E010FE30F426
:10350000F8D441EC100443EC112400EE010410EE59
:103510003004C0F30070704700B5FFF7E9FE02E029
:1035200010FE30F4F8D443EC102441EC110400EE0A
:10353000010410EE30F48CBF01200020704700BF62
:1035400000B5FFF7D5FE02E010FE30F4F8D441ECF0
:10355000100443EC112400EE010410EE30F42CBFF3
:1035600001200020704700BF00B5FFF7C1FE02E058
:1035700010FE30F4F8D441EC100443EC112400EEBA
:10358000010410EE30F48CBF01200020704700BF12
:1035900038B50446094804F08BFB204603F038FE9A
:1035A0000546064804F080FB2DB1054B2C449C4297
:1035B00001D8284638BD0348FEF7EEFAB81B0020B4
:1035C00000000820B47E00109A4238BF885470472B
:1035D000704700BF2DE9F04F83B09946DDE90DAB90
:1035E0000F9B884611469A07074616D1DA453AD20C
:1035F0000C460D46ABEB0A060E4422464B464146AE
:1036000020200134B847B442F7D12946BAF1000F5F
:1036100008D1204603B0BDE8F08F0C46BAF1000F88
:1036200010D00E4655460C9B2E449A440191721BB5
:103630004B46013D41461AF8010D3446B847002D6E
:10364000F5D101990F9B9B07E3D5651AAB45E0D9EE
:1036500022464B46414620200135B8475D4504F1DE
:103660000104F5D3D5E7BAF1000FDAD10C46D0E763
:103670002DE9F04F0F9FDDF824E017F0020F0A9CB0
:103680009DF82C900E9DDDE90C8629D1002D6FD17F
:10369000B44225D2202C07F0010B00F0128104F176
:1036A000FF3C4FF0300AF44401E0202C7AD0013482
:1036B000A6420CF801AFF8D8BBF1000F10D0AC4215
:1036C0000ED2202C74D004F1FF3C4FF0300AF444A9
:1036D00001E0202C29D00134AC420CF801AFF8D124
:1036E00017F0100F3AD017F4806F28D11CBBB8F137
:1036F000100F00F0CA80B8F1020F00F0D48030241F
:103700008EF800400124B9F1000F67D17E0740F127
:10371000AA802B260EF804600134CDE90B57CDE9C1
:1037200009E4BDE8F04FFFF755BFFC0640F1898082
:103730007C0535D42024A6426AD0AC4268D0B8F1CA
:10374000100F00F08780B8F1020F5AD0202CE4D07F
:10375000264601344FF0300C0EF806C0202CD2D192
:10376000CDE90B57CDE909E4BDE8F04FFFF732BFD3
:1037700017F0010B3ED0B9F1000F47D117F00C0F35
:1037800044D1B4429BD2202C89D1202D10D8FC06E4
:1037900057D57C0555D4202E00F0B980202D10D0AF
:1037A0002024CCE7BBF1000F00F0A580202DBCD970
:1037B000FC0646D57C0544D4202E00F0A880202DA0
:1037C0003FD12C461F26B8F1100F7FD0B8F1020F61
:1037D000C0D14FF0620C0EF806C0B7E72D260EF8E8
:1037E00004600134CDE90B57CDE909E4BDE8F04FA1
:1037F000FFF7F0BEB442BFF473AF202C7FF44FAF9D
:10380000D6E7202C89D026460134E2E7013DB8E70F
:10381000661ED8D1B8F1100F64D0B8F1020F7FF452
:103820006EAF62268EF80060302644468EF8016046
:10383000B9F1000F3FF46AAFD0E7B8F1100F7FF491
:103840006CAF2024CDE90B57CDE909E4BDE8F04F7A
:10385000FFF7C0BEBE060ED4202CF2D078260EF89C
:103860000460013472E73E077FF557AF20260EF85B
:103870000460013451E7202CE3D04FF0580C0EEBDC
:10388000040686F800C0013460E7BE0617D5582448
:103890008EF8004030248EF801400224B9F1000F68
:1038A0003FF434AF9AE762248EF8004030248EF85B
:1038B00001400224B9F1000F3FF428AF8EE77824CD
:1038C000F2E7BBF1000F7FF462AF71E717F0200F52
:1038D0000CBF4FF0780C4FF0580CA61E0EF806C027
:1038E000013C35E7BC06EAD558248EF80040302468
:1038F0008EF80140DDE717F0100F3FF40EAF17F41C
:10390000806F9AD1202E7FF418AF1F265BE73446D4
:103910001F2658E700B9704701F04EBA00000000BA
:103920002DE9F04F9FB09DED287BDDE92AA558ECED
:10393000177B83461E460D91109243463A46384601
:1039400041468DED087B2C9CFFF7D8FD002840F008
:10395000D880384641464FF0FF32754BFFF708FEDE
:10396000002840F0CE80384641464FF0FF326FF4D9
:103970008013FFF7D5FD002840F0C380DDE908780B
:103980000022384641460023FFF7CAFD002840F0D8
:10399000C081CDE90A78DDE90A2390461F4614F478
:1039A000806308BF4FF0060A139304F4006258EADC
:1039B0000703119240F0C080002A00F0A2819FED21
:1039C0005A7B00278DED0E7B4FF00009BA45CCBF26
:1039D000AAEB070A4FF0000A4F46C8BF0AF1FF3AA8
:1039E00044F480644D4594BF4FF00008A5EB0908EE
:1039F00014F00203119304D0B9F1000F18BF4FF077
:103A000000083FB1DDE90A01DDE90E23FFF7E0FC24
:103A1000CDE90A01DDE9080100220023FFF780FD5E
:103A200030B1DDE90A01024601F10043CDE90A2384
:103A30009DED0A7BCDE902A8DDF834A024F40063F3
:103A400004938DED007B334651465846109A00F0A2
:103A500097F98046B9F1000F4FD014F0200F0246BD
:103A600000F1010433460CBF652045205146D8477C
:103A700009F1FF3087EAE77C0DF1580900224B4637
:103A8000DFF8B080ACEBE77C4FEAD77E01E0202A7C
:103A900010D0E246A8FB0C71C90801EB8107ACEB22
:103AA00047073037BAF1090F8C4602F1010203F8DB
:103AB000017BECD805230590069300200A230D9F77
:103AC000CDE90330CDE9012E33462246394658462A
:103AD000CDF80090FFF7CCFD119B80466BB1109B99
:103AE000C41AA54209D9424633463946202001343A
:103AF000D847A54208F10108F5D840461FB0BDE8F7
:103B0000F08F9DED087B33465846109A0D998DED48
:103B1000287BCDE92B54CDF8A8A01FB0BDE8F04F0D
:103B200000F02EB9AFF3008000000000000000009C
:103B3000FFFFEF7FCDCCCCCCC7F30A50A0F2FF3013
:103B4000FFF794FC8AA3D3E90023FFF71BFC8AA3A9
:103B5000D3E90023FFF7EEFBC7F31307CDE90E010E
:103B600047F07F51404600227B4B41F44011FFF764
:103B7000F5FB6BA3D3E90023FFF704FC02460B46D9
:103B8000DDE90E01FFF7D6FBFFF794FC0746FFF7D0
:103B90006DFC65A3D3E9002380468946FFF7F2FB5D
:103BA00000226E4BFFF7C6FBFFF784FC0346494635
:103BB000404612935EA3D3E90023FFF7E3FB804660
:103BC00012988946FFF752FC5BA3D3E90023FFF765
:103BD000D9FB02460B4640464946FFF7BFFB02466B
:103BE0000B4680468946FFF7CDFB42464B46CDE962
:103BF0000E0140464946FFF79DFB0022CDE9140126
:103C0000DDE90E01564BFFF7E3FB0022554BFFF7B2
:103C100091FB02460B46DDE90E01FFF7D9FB0022BE
:103C2000514BFFF787FB02460B46DDE90E01FFF71C
:103C3000CFFB42464B468046894600204FF08041EC
:103C4000FFF78CFB02460B4640464946FFF772FBE6
:103C500002460B46DDE91401FFF7BAFB0022434B95
:103C6000FFF768FB129B002203F2FF3C4FEA0C5364
:103C7000FFF788FB80468946DDE90A0142464B464C
:103C8000CDE90E89FFF74CFC68BB4346494607F176
:103C90006302C62A119A8CBF4FF005094FF0040940
:103CA000002A3FF49FAE0B433FF48EAEDDE90A01DC
:103CB00023A3D3E90023FFF747FC48B1DDE90A015C
:103CC00021A3D3E90023FFF72BFC00287FF47CAE6F
:103CD000BAF1000F3FF486AE139B002B3FF482AE87
:103CE0000AF1FF3A7EE600221E4B40464946FFF7A6
:103CF0006FFB0A4601460346CDE90E12013F11460D
:103D0000C5E79FED137B17464FF004098DED0E7B41
:103D100068E608F100430A970B933CE6AFF3008096
:103D200061436F63A787D23F71A379094F930A401C
:103D30001655B5BBB16B0240EF39FAFE422EE63F95
:103D40002D431CEBE2361A3F0000000080842E4118
:103D500000000000000000000000F83F0000E03F0D
:103D600000002C4000002440000018400000F03FFC
:103D7000FB799F501344D33FB3C8608B288AC63F5A
:103D80002DE9F04F97B0DDE92089CDE90401DDE9A7
:103D9000224BCDE90623404642464B464946DDF8D4
:103DA00090A0FFF7ABFB002840F0C5814046494694
:103DB0004FF0FF326FF48013FFF7B2FB002840F0A2
:103DC0001D81404649464FF0FF32C14BFFF7D0FB03
:103DD000002840F0E380B8A3D3E9002340464946D9
:103DE000FFF7C6FB002840F0CB80B5A3D3E9002342
:103DF00040464946FFF794FB002840F0C18040460A
:103E0000494600220023FFF78BFB002840F0E080AA
:103E10001AF480650D9000F0E980092C40F296813B
:103E20000EAB1A460C9330210023A4F1090501338F
:103E3000202B02F8011BA4EB030600F03A81AB42F1
:103E4000F5D19FED9D7B8DED087B49464046FFF700
:103E500031FB0446FFF70AFB02460B464046494643
:103E6000FFF77CFADDE90823FFF78CFA02460B46E0
:103E7000CDE90A23FFF730FB0746FFF709FB0246AF
:103E80000B46DDE90A01FFF769FA02460B46CDE968
:103E90000A2300228F4BFFF76BFB002800F0DB802A
:103EA00001373846FFF7F4FADDE90823FFF74CFB4A
:103EB00008B100270134002E40F0B1802046FFF702
:103EC000D5FA02460B4640464946FFF747FA00221C
:103ED000804B06460F46FFF723FB40B93046394674
:103EE00000227C4BFFF744FB002800F015810C9B5F
:103EF000691E7948194410E080FB0462C3EBA203F9
:103F000003EB8302A4EB420404F1300201351C46AA
:103F100001F8012F002B00F0AB80202D4FEAE47355
:103F2000EAD10AF00303012B1CD1BBF1000F19D019
:103F30000D9B002B40F0F9801AF00C0F40F0F5803B
:103F4000AB4540F2D380202D0BD030220C996B1E54
:103F50000B4401355D4503F8012F00F08D80202DC5
:103F6000F7D12025DDE90623DDE904010C9CCDE92C
:103F700002BA01950094FFF72DFB17B0BDE8F08F52
:103F8000CDE92089DDE90623DDE90401CDE923BA85
:103F9000229417B0BDE8F04FFFF7C2BC4F4DCDF8EB
:103FA0008CA00AF0040ABAF1000F4D4C18BF2C4641
:103FB000DDE90623DDE9040120940CBF0324042479
:103FC000CDF888B0219417B0BDE8F04FFFF702BBE1
:103FD0004B46424600200021FFF7C0F901231AF4A6
:103FE0008065804689460D937FF417AF9FED367B41
:103FF0000EAB06268DED087B0C9326E70424DDE945
:104000000623DDE90401374DCDF88CA0CDF888B04A
:104010002095219417B0BDE8F04FFFF7DBBA0C9B59
:10402000681EDFF8C4C018440DE0ACFB0721C908C6
:1040300001EB8102A7EB42023032092F00F8012F79
:1040400027D90F461D46202D05F1010306F1FF3645
:10405000EBD120254BE70022DDE90A011D4BFFF7DC
:104060005FFA00287FF427AF002F5AD1013722E7EB
:104070000AF00303012B75D0202D3FF473AF0D9B85
:10408000BBB32D2205F158036B4403F8202C0135F6
:1040900068E7202BDDD0AEB30C9A1E4415443022C5
:1040A00001E0B3422ED00133202B05F8012FF8D1C7
:1040B000CFE71D46C5E600BF0000000065CDCD413D
:1040C0000000000065CDCDC10000000080842E41BD
:1040D000FFFFEF7F0000E03F67666666087F001025
:1040E000107F0010187F0010CDCCCCCC202D3FF4D9
:1040F00039AF1AF0040F0DD11AF0080F3FF432AFA8
:104100002022BFE72E2103F158026A4402F8201C46
:104110005D1CECE62B22B5E7E3077FF5E8AE013442
:10412000E5E6FA077FF5C7AEA0E70BF1FF3BAB452D
:104130003FF609AFA0E70324DDE90623DDE904012A
:104140000A4DCDF88CA0CDF888B061E7084B264623
:1041500003EBC40393ED007B0EAB8DED087B0025D4
:104160000C9372E6BBF1000F86D0E1E6147F0010DD
:10417000888200102DE9F04F9A469BB0249C964D02
:104180000B94964C0B1E18BF834625609AF80000CE
:10419000934C0A9308BFA3460992002800F0BC8202
:1041A0004FF000090AE04A46099B0A9909F1010902
:1041B000D8479AF80000002800F0CE8025280AF1A0
:1041C000010AF0D10023524612F8010BA0F12001A0
:1041D00010290AD8DFE801F04009093C090909095A
:1041E00009090938093409093000A0F13001092909
:1041F00040F28C802A2800F0F58000210C912E28B6
:1042000000F099800027A0F1680112292DD8DFE87D
:1042100011F057012C0051012C0045012C002C00FD
:104220002C002C002C002C002C0027002C002C0033
:104230002C002C002C002700924643F00103C2E71B
:10424000924643F00203BEE7924643F00403BAE706
:10425000924643F01003B6E7924643F00803B2E7F4
:104260009AF8010043F4807301326728924600F205
:104270008280242840F2C680A0F12502422A00F262
:10428000C180DFE812F05F01BF00BF00BF00BF00C8
:10429000BF00BF00BF00BF00BF00BF00BF00BF0026
:1042A000BF00BF00BF00BF00BF00BF00BF00BF0016
:1042B000BF00BF00BF00BF00BF00BF00BF00BF0006
:1042C000BF00BF00BF00260145012601BF00BF009F
:1042D000BF00BF00BF00BF00BF00BF00BF00BF00E6
:1042E000BF00BF00BF00BF00BF00BF00D301BF00C1
:1042F000BF00BF00BF00BF00BF00BF00BF00BF00C6
:10430000D3016701D301260145012601002100E008
:10431000013201EB810100EB410110789246A0F1DE
:104320003004092CA1F13001F2D92E280C9102F1B0
:1043300001027FF467AF9AF801001146A0F1300640
:10434000092E43F4806340F231812A2800F03E8137
:1043500092460027013256E74C46099B994501D306
:1043600003F1FF394A460020099B0A99D8472046A5
:104370001BB0BDE8F08FA0F16902D2B20F2A41D87C
:10438000012649F2410196400E4040F001810A2A7F
:104390003FD0072A36D10B9C54F8042B002A00F09A
:1043A000288143F021010DF1480E704603E0202ED4
:1043B00000F029811A4602F00F052B46092D94BF03
:1043C000303337330F2A00F8013B06F101064FEA7C
:1043D0001213ECD817E100BF75410010202904200A
:1043E000D13500100B9C9AF8010054F8045B9246FA
:1043F000002DBDBF694243F002030C910C950B9454
:104400000132FCE64A46099B0A9909F10109D8479D
:10441000CFE60B9951F8048B98F800201046002F36
:1044200040F0E18072B16FF0010C0CF1010C4646D6
:10443000C44401E0664503D016F8014F002CF9D1C1
:10444000A6EB080613F4806C02D0BE4228BF3E469D
:1044500013F0020400F08781002A00F02B81BCF1E8
:10446000000F00F041810B940D964A46DDE9095496
:104470000E464F4408E02B462146D84718F8010F56
:1044800009F1010910B14A464F45F4D131460B9C60
:104490000D9E002C40F00E810B918AE69AF80100E7
:1044A0006C287FF4DFAE9AF8020043F440730AF1FF
:1044B0000302DAE69AF8010043F400730132D4E60D
:1044C0009AF80100682800F0208143F0800301324F
:1044D000CBE6672800F0E780472800F000814528F8
:1044E00000F0FF800B9C04930C9B0734CDE9027312
:1044F00024F007031C46DDE90931F4E802674A4667
:104500005846CDE900670B94FFF70AFA814650E65A
:1045100046280B9C08BF43F0200304930C9B0734F0
:10452000CDE9027324F007031C46DDE90931F4E804
:1045300002674A465846CDE900670B94FFF720FC16
:10454000814636E64A462520099B0A9909F1010968
:10455000D8472EE60B9A9C0702F1040709F10106E1
:1045600040F1E6801078099B4A460A99D8470C9B8F
:10457000012B40F22C81DDE90954994432462B4647
:10458000214620200136D8474E45F7D10B9710E63B
:104590006F2800F08B8040F26581782800F0088158
:1045A0004FF00A0823F01003C44647E0002707EB4A
:1045B000870700EB4700A0F1300711F8010FA0F1C9
:1045C0003002092AF3D98A464A1C1CE60B9C9AF849
:1045D000020054F8047B0AF1020A0AF101020B946A
:1045E00027EAE7770FE6002A3FF42CAF07F1FF3CFC
:1045F0001BE723F0100113F4806241F021013FF426
:10460000D2AE0DF1480E08231020059300234A4630
:10461000CDE9023006915846DDE90931CDE900E6E1
:104620000497FFF725F80B948146C2E5582879D006
:10463000622840F051824FF00208C44613F48060B3
:104640006DD123F00C0313F4007240F0C2800B997B
:1046500004310D9113F4807140F02E825E060B9AA6
:1046600040F1AA801278002A40F0DA8023F010038B
:10467000002800F0D58011460DF1480E06930C9BE2
:10468000CDF80CC0CDE90473019100234A46029392
:104690005846DDE90931CDF800E0FEF7E9FF0D9B52
:1046A00081460B9385E543F400631BE74FF0080850
:1046B000C446C3E70C9B4C46B3427FF6EDAE0F46B3
:1046C0004B44A3EB0609DDE909652246334629463A
:1046D00020200134D8474C45F7D13946DCE643F475
:1046E000006343F02003FDE60F460B94DDE9095417
:1046F0004A462B462146D84718F8010F09F101090F
:104700000028F5D139460B9CC3E69AF8020043F025
:10471000C0030AF10302A8E5044681461DE623F022
:104720000D0390E74FF0100843F02003C44685E7DF
:104730000C9B012B45D9DDE909544E4609F1FF38A0
:10474000984432462B46214620200136D84746451C
:10475000F7D10C9B324699440B9B1878DDE909315F
:10476000D8470B9725E50C9BB34240F2EE81CDE98B
:104770000D48DDE9095488464B449E1BCDF82CC0FA
:104780004A462B462146202009F10109D847B14568
:10479000F6D14146DDF838800C9BDDF82CC00D9C2D
:1047A00098F800205E1C1046002A7FF458AE73E68D
:1047B0004FF01008C44641E71D064CBF128812682E
:1047C00051E713464A461878DDE90931D847B14622
:1047D000DCE60B9C073424F007042246656852F897
:1047E000084B0B9254EA050240F02C8123F0100391
:1047F000002800F0278100260DF1480E06930C9B3F
:104800004A46CDE904730023CDE900E6CDF80CC09B
:1048100002935846DDE90931FEF72AFF8146C8E4D4
:1048200013F0200F14BF412061200DF1480E764691
:10483000A0F10A0803E020293FF420AF2246B2FB92
:10484000FCF40CFB1425E8B2092D00F130058ABFF9
:104850004044E8B2C0B2624506F8010B01F1010123
:10486000E9D20BE723F0100269280D9240F06F8126
:1048700013F4806204D04FF4806223F011030D938F
:104880000D9B13F4007640D10B9B03F104080D9BA4
:1048900013F4807040F09880590640F1C6800B9B5D
:1048A00019780C46CB0F002900F0B98022460DF193
:1048B000480E74461646DFF8A0C201E020280FD04B
:1048C0003546ACFB0621C90801EB8102A6EB42028A
:1048D0003032092D0E4600F1010004F8012BEDD80D
:1048E0000D9ACDE9010306920C9ACDE904720A23D0
:1048F0004A4603935846DDE90931CDF800E0FEF75A
:10490000B7FECDF82C80814653E40B9C073424F08D
:10491000070421460846636850F8081BDC0F0B901B
:1049200051EA030000F0C3800A46191E48DB134613
:104930000DF1480EF4460026CDE90E94DFF81882FA
:1049400001E0202E2DD05A1842F10002A8FB025996
:1049500029F0030505EB9905521B1C469B1A61F1D2
:10496000000508464FF0CC3101FB03F108FB0511AF
:10497000A3FB08531944052305F00109A9FB0339DA
:104980009B180A2C03F130034FEA550570F1000023
:104990000CF8013B06F1010645EAC1734FEA5101EB
:1049A000CFD2DDE90E940D9B4A4606930C9BCDE9D0
:1049B0000164CDE904730A23CDF800E0039328E7EE
:1049C000524261EB4101B2E70B9B1968CB0F002902
:1049D00000F0AB8081EAE172A2EBE1720DF1480ECA
:1049E0007046DFF874C101E0202E10D01546ACFBF4
:1049F0000241C90801EB8104A2EB440404F1300236
:104A0000092D00F8012B06F101060A46ECD80D9A93
:104A1000CDE9016306920C9ACDE9047267E7002A9A
:104A20003FF445AF0DF1480E5AE713F0800F0B9B92
:104A300000F08180B3F9001081EAE174A4EBE17425
:104A4000A4B22FE713F0200F14BF412261220DF111
:104A5000480E0A3ACDE90D97CDF844B000267746C6
:104A6000F3469146CDE90F3C03E0202E17D00446D3
:104A70000D46294642460023204603F011F9D2B2E2
:104A8000092A02F1300388BF02EB09034445DBB277
:104A900075F1000507F8013B06F10106E5D2DE4697
:104AA000DDE90D97DDE90F3CDDF844B0A6E6002A0C
:104AB00047D1134611463BE70B990968A1B923F08A
:104AC000100388B10DF1480E06930C9BCDF80CC075
:104AD000CDE904730192D8E513F480627FF4CBAE84
:104AE00023F010030D93CBE613F0200F14BF4120E9
:104AF00061200DF1480E7646A0F10A0802E0202A56
:104B0000E2D02146B1FBFCF40CFB1415E8B2092DF0
:104B100000F130058ABF4044E8B2C0B2614506F8F2
:104B2000010B02F10102EAD2CEE7002A3FF456AFB0
:104B30000DF1480E6BE7196881EAE174A4EBE174AA
:104B4000B0E600260DF1480E2DE701362BE64FF0BA
:104B50000A081346C44671E5CDCCCCCC84460CB4CF
:104B600010B584B006AC54F8043B0A460094614684
:104B700004480394FFF7FEFA04B0BDE8104002B009
:104B8000704700BFC935001010B5094B84B01C68D0
:104B90004CB1034600914FF0FF3203A90548A047EE
:104BA000012004B010BD00F049F9204604B010BD4A
:104BB000202904201539001000BEFDE7074A0346EE
:104BC000106838B1064903448B428CBF4FF0FF3068
:104BD00013607047034908461160F3E71825042065
:104BE00000000820D829042008B5FFF7E5FF00BF22
:104BF00038B5064C064DFEF781FAAC4204D254F8A3
:104C0000043B9847AC42FAD338BD00BF287D001062
:104C1000307D00100368084611461847437D2DE992
:104C2000F04781460F461646002B43D0002A3BDD55
:104C3000037D00204D1E014615F8012FDFF884800A
:104C40000A2A01F101040ED0A6421CD02B7821467D
:104C5000A3F10D03B3FA83F315F8012F5B090A2AB8
:104C600001F10104F0D1002BEED18142A1EB000152
:104C700038441BDC02214046D9F800309847A64250
:104C800008D02046E2E7864204DD311AD9F8003028
:104C900038449847374417F8013CA3F10D03B3FAA1
:104CA00083F35B0989F81430BDE8F087D9F8003048
:104CB0009847DFE73846D9F800301146BDE8F0479D
:104CC000184700BFD88200102DE9F04782B00D468A
:104CD000924699460746FDF7FDFD4FF0FF366FF00F
:104CE00000442F4A821841F10003964274EB0301FD
:104CF0003CBF324623462B4802F0E2FF6B1C804645
:104D000003D1384602F034FE0546274B274E1C6877
:104D1000274BB9F1000F18BF1E46B4B1BAF1000F0E
:104D20001AD1DFF8909001E0246974B12368002B58
:104D3000FAD0D9F800300BB19C42F5D120462A4672
:104D40003946B0472469002CF0D1B8F1000F1FD1CB
:104D5000284602B0BDE8F0874FF00A0ADFF8549009
:104D600002E02469002CF0D02368002BF9D0D9F898
:104D700000300BB1A342F4D12A4639462046B04751
:104D8000012220460DF107018DF807A0B047E8E7A2
:104D9000044802F089FF284602B0BDE8F08700BF52
:104DA00040420F00C01B002004250420154C0010B9
:104DB0001D4C001010250420F0B583B006468DF878
:104DC0000700FDF787FD4FF0FF356FF00044174AED
:104DD000821841F10003954274EB03013CBF234666
:104DE0002A46134802F06CFF124B07461C689CB120
:104DF000114D01E024697CB12368002BFAD02B68A7
:104E00000BB19C42F6D1204601220DF10701FFF7BC
:104E100005FF2469002CEFD117B9304603B0F0BD6F
:104E2000034802F041FF304603B0F0BD40420F009E
:104E3000C01B0020042504201025042038B504469A
:104E400002F096FD012305461A4620462946FFF743
:104E50003BFF084B1C682CB163682BB19847246951
:104E6000002CF9D1284638BD2469002CF4D12846FD
:104E700038BD00BF042504202DE9F04789460546CA
:104E8000FCF7A2FE012399F8042099F905C005F169
:104E90002F4EDFF8D8800EF5600E93404FEA1E5E6D
:104EA000BCF1000F58F82E7003F1FF3346DBC2F15E
:104EB00020018C45644631DC03FA0CF139422DD1D6
:104EC0006646D5F868A199F80710BAF1000F2CD002
:104ED000C9072CD4BCF1000F01DB664527D1B340D4
:104EE0001F423CD1D9F8001082B1B44601EB42090F
:104EF00031F8022B0CF1120AB2F5005F38BF92199B
:104F000049450CF1010C45F82A20F1D13B4348F802
:104F10002E30FCF76BFE2046BDE8F0874FF0FF34E3
:104F2000FCF764FE2046BDE8F0874907D2D56FF054
:104F30000A04FCF75BFE2046BDE8F087D2F12004AE
:104F40000DD403FA04F13942264603D1B9E73942B8
:104F50002646B6D0013C661C03FA04F1F7D16FF087
:104F60000804FCF743FE2046BDE8F08778230420C0
:104F70002DE9F041D0F868419DF81860121B1F2AF6
:104F800038D84EF29F044EF280054FF4003801EB02
:104F9000410C002E18BF254600EBCC0404F5435409
:104FA00000EBCC0C052BDCF8DC704FEA410EDCF892
:104FB000CC60C4F80C800CD95401053B44F0A054DB
:104FC0000532052BCCF8DC4002F01F02CCF8D8509B
:104FD000F2D8714400EBC1010020520142EA836320
:104FE000C1F8DC30C1F8D850C1F8DC70C1F8CC6031
:104FF000BDE8F0816FF00400FAE700BFF0B50125CD
:1050000004688D4024EA05040460B3B3D3E9015673
:105010001F68DC6801EB410300EBC303C3F8C870F1
:105020004FEA410CC3F8D060C3F8CC50C3F8DC4061
:105030000CEB01034FF0013500EBC30C4FF00046C1
:1050400000EBC30E01230EF5865E0C1D01F108076F
:105050008D40CEF8106003FA04F4CEF8106002F030
:105060001F028560BB4000F5005004600EF1100E79
:1050700003600020CCF8D820F0BD4FF480374FF407
:1050800040264FF4F83501EB410400EBC404C4F8AA
:10509000C8704FEA410CC4F8D060C4F8CC50C4F8D2
:1050A000DC30C5E703BD00BF10B50446FEF736F897
:1050B0002346BDE8104018472DE9F04F824683B0E3
:1050C000192090469946FCF77BFE834600286BD159
:1050D000384EFDF7FFFBB8EB000569EB0104002C2F
:1050E00050DBFDF7F7FB4FF0FF326FF0004328185D
:1050F00044EB0101824273EB01043CBF10461946A8
:105100004FF05042136D9B074AD4736A9942F9D805
:10511000B46A84422CD3FDF7DDFBB8EB000569EBE4
:105120000104002C2EDBFDF7D5FB4FF0FF326FF0B2
:1051300000432D1844EB0104AA4273EB04013CBF69
:1051400015461C464FF0504704E028462146FDF71F
:105150004FFBB8B93B6D13F00103F6D0BA6D924521
:10516000B7D1BBF1000F11D1184603B0BDE8F08FE5
:105170009942C7D0FDF7AEFBB8EB000569EB01041F
:10518000002CD0DA0023BBF1000FEDD00121192053
:105190000193FCF7FFFD019B184603B0BDE8F08FBB
:1051A000C2F854A040BFB6E700211920FCF7F2FD79
:1051B0008EE700BF00000B40F0B5054687B0192010
:1051C00017460E46FCF7FCFD002104461920FCF7AB
:1051D000E1FD0021CDE904650397002600270122A7
:1051E0004FF050438C46CDE900670292B9B11A6D79
:1051F0009507FCD5596540BF1A6DD00703D420BF71
:105200001A6DD207FBD59A6D8A420DD04FF0000C73
:1052100006AA02EB8C0252F8181CE7E79A6D1A6D89
:10522000D607FBD440BFE2E70CF1010CBCF1060F3E
:10523000EED12146192007B0BDE8F040FCF7AABD29
:105240000C4B0D4A93420ED39C4603F2F4710B4A69
:105250009268CCF8F4070A48CCF8F837CCF8FC0789
:105260000848FFF7A9BF4FF0FF3340F2F3719C46A7
:10527000EDE700BF000808200000082000ED00E076
:10528000A9500010A550001010B5FCF79DFC0D4B67
:1052900004461A688AB12046FCF7A8FC4FF0504338
:1052A000192009491C68FCF79BFD01211920FCF716
:1052B00071FD0122054B1A5510BD1846FCF73EFF43
:1052C000E9E700BF24290420450400202C290420FC
:1052D000144BD0B5D3E90067FCF776FC124B0446BB
:1052E0001A68DAB12046FCF781FC32463B460E488C
:1052F00002F0EAFC88B10D4C23785BB93B4632469C
:105300000B48FFF7D9FE034607482370BDE8D0409D
:1053100002F0CABCFDF7ECFEF0E7D0BD1846FCF782
:105320000DFFDFE72882001024290420CF29042064
:105330001E83A87338B50C4B0C48D3E900452246B0
:105340002B4602F0C1FC00B938BD22462B46084866
:10535000FFF7B2FE10B10022064B1A700348BDE8F9
:10536000384002F0A1BC00BF28820010242904208C
:10537000E17C578CCF29042070B500F02BF90C2369
:1053800040251B4CFF220E201A49A367FCF758FD4D
:10539000194B002118462A4602F0F8F9034600216D
:1053A00080200126154A58849A60843A59605E70BC
:1053B0001D831D87C2F88410C2F8801002F5807228
:1053C000DA60DA62803A83F8211083F83B10596280
:1053D0009A6202F081FC4FF000504FF4803208498D
:1053E000084B2664E064C4F89010DA6470BD00BF16
:1053F00000001150B90500201C2504208400105025
:1054000010D001000020115001210E20FCF7C2BC79
:1054100000220248114600F0FDB800BF3C250420E0
:10542000044B197021B14FF40032034BC3F89020A4
:10543000704700BFC7290420002011500B785B067D
:1054400002D14B78052B00D070474B88014ADBB264
:1054500013607047000011504FF0000C2DE9F0412F
:105460008878354D00F07F025600CF788B8806EBA8
:10547000D01105EB4111C4098870C7F30100C8764B
:10548000C3F30A0384F0010081F803C00B83487062
:1054900007F00307D10084BB2848043105EB821EC6
:1054A00001EB0008CEF8088041F800C082B324491F
:1054B000D2001144CEF8041022483F33016823F093
:1054C0003F03022F204A08BF5B000B44036081EAC0
:1054D00002085340321905EB4212B3F5805FD160E8
:1054E00027D8264405EB46156B6848EA876242F0E8
:1054F000004201201A60BDE8F081DFF840E010B200
:10550000714405EB8218C8F828104EF830C042B933
:1055100000230E4A05EB44140120E2606360BDE8FD
:10552000F081D20002F1A04202F58012C8F82420D6
:10553000C2E7FDF7DDFDD4E71C25042080001050F4
:1055400004001050382904200000105000011050B1
:1055500002F0C2BB8C4608B5114607481A460CF04B
:105560007F034FEADC1C0CEB430C00EB4C1000F00B
:1055700051F8012008BD00BF1C250420CB0911F003
:105580007F0103D1064AC3F102009066054803EB90
:1055900041034FF40062002100EB431002F08CBB8A
:1055A000002011501C25042011F07F0300D170470A
:1055B000002210B4C809064C00EB430004EB401372
:1055C0006FF4006118465DF8044BDA7002F074BBAA
:1055D0001C2504204FF0805209480A4908B50A4B9F
:1055E00002600A609968C94311F08051FAD14FF402
:1055F0008052064802F0CAF80922054B5A6708BDD6
:105600000020024000300240000002400000105024
:105610000000115000234FF0010C10B580F81AC0A3
:105620008282C3820161044602F032FB20B14FF452
:105630000032074BC3F89020204602F049FB10B11E
:105640000123237710BD2046BDE8104002F01CBBAB
:1056500000201150002070472DE9F0414FF0000864
:105660001C4D044642462B781B4F1C4E0DE0336800
:1056700013EB421325D0DB682046984708F1010858
:105680002B785FFA88F2934206D39342A2EB03038E
:10569000EDD807EB4313EEE7114C542200212046CE
:1056A00002F074F84FF0FF33251D6360C5E9013344
:1056B000EB6004F114002022BDE8F041FF2102F06C
:1056C00065B84FF0E023D3F8F03DDB0700D500BE0E
:1056D000BDE8F081C6290420DC820010D821042016
:1056E0005C220420704700BF704700BF0020704755
:1056F0000020704700207047704700BF704700BF10
:10570000704700BF704700BF024B5878003818BF81
:10571000012070475C220420024B1878C0F38000FF
:10572000704700BF5C2204202DE9F8432B4E3378EC
:10573000FF2B02D00120BDE8F8830021542205464A
:10574000274802F023F80022264C274B20461A70E7
:10575000FCF7F4FC254B26481C60264CFCF7FCFCAF
:10576000204601F041FC244A244B1460244C5BB3D6
:105770002046AFF30080234B227818604FF00009D9
:10578000DFF884804B461F4F0DE03A6812EB43135D
:1057900011D05B687BB1984709F1010922785FFA63
:1057A00089F39A4212D39342EFD39B1A08EB431327
:1057B0005B68002BEFD14FF0E023D3F8F03DDB071F
:1057C00000D500BE0020B6E72278D7E7284635701E
:1057D000FFF7D2FD2846FFF717FEABE7581600206B
:1057E0005C22042014220420C8290420B0220420B2
:1057F000501600203C160020B422042000000000B7
:10580000C6290420D8210420DC8200102DE9F04FA5
:10581000DFF8B0928BB099F80030FF2B00F0ED80EC
:10582000A24CA34DDFF898A2DFF89CB226687369FA
:10583000EFF3108272B6D3E8CF0F01210028FAD11E
:10584000C3E8401F0028F6D1BFF35F8FB261304636
:1058500007A901F017FA00237269C2E88F3FB36904
:1058600083F31088002800F0C8809DF81D30013BAC
:10587000072B00F26B83DFE803F0A5AF939B8C3519
:105880000A04089B002BD1D009989847CEE79DF8D1
:10589000201001F07F0605EB460000EBD11090F8D8
:1058A000343023F0010380F8343090F8343023F0A2
:1058B000040380F83430002E00F0A280027D9AF8B4
:1058C00000309A4280F091807A4B1B6813EB4213B0
:1058D00000F08C809E699DF82120099B9DF81C009A
:1058E000B047A3E79BF80030002B7FD09BF8003037
:1058F000013BDBB28BF800309BF8003003F0FF0077
:10590000002B93D16A4F9DF81C803B7843F0010334
:105910003B7097F8343060F3000387F8343097F821
:10592000343060F3820387F8343097F8353060F311
:10593000000387F8353097F8353060F3820387F835
:10594000353000F059FC9DF8203003F06002602AE9
:1059500066D0402A76D003F01F03012B00F0B680FA
:10596000022B7BD0002B5BD1202A00F0DB81002AA8
:1059700056D19DF82130092B52D8DFE813F0A2014F
:1059800094015100B301510087015D0151005201A2
:10599000E5002B78D9077FF549AFFFF7B3FE45E760
:1059A000EB78DA077FF542AF0898FFF79DFE3DE7F9
:1059B0002B78D8077FF53AAF2878C0F3C000FFF7FF
:1059C0009FFE33E79DF81C00FFF746FE00F00AFC3F
:1059D0009DF82030AB7029E79DF81C00FFF73CFED6
:1059E00000F000FCFFF78AFE20E711D04FF0E02323
:1059F000D3F8F03DDC0700D500BE0BB0BDE8F08F5A
:105A0000099B9DF821209DF81C0000F009FC0DE782
:105A1000294B5FE7FAF7B2FC0246002840F0798193
:105A20004FF0E023D3F8F03DDE0700D500BE9DF82F
:105A30001C000021FFF7A2FD80219DF81C00FFF74C
:105A40009DFDF3E61D4800F0D7FB0121404608AA62
:105A5000FFF700FE00287FF4E9AEE8E79DF8241088
:105A600011F0700FDCD101F07F0607EB4600144BFC
:105A700000EBD1101B78007D7600019698424FEA2A
:105A8000D11600964FD340F05F810B4E002A00F0F4
:105A90005F81706900F0B0FB01214046736908AA7C
:105AA000984700287FF4C2AEC1E700BFB4220420AB
:105AB0005C220420D8210420DC82001055560010FE
:105AC000C629042058160020C82904209DF8243037
:105AD0000F2BACD8AA4A3B441B79127893422DD3A2
